:02000004080AE8
:1000000000000A08300B0A08000003000600050182
:080010000402070000000000DB
:10001800D8090A08074B70B51E46074C0025E41A94
:10002800A408A54204D056F8253098470135F8E7CA
:1000380070BD00BFCC0A0A08FC0A0A0809480A4928
:1000480008B5884205D0094A824202D0121A00F047
:10005800A3FC0748074A0021121A00F0A8FC06482A
:1000680008BD00BF00030020000B0A080803002099
:1000780008030020740400207404002000F004B871
:1000880000F01EB800F034B908B5094B00211888F3
:1000980000F02EFB07484FF4165100F0D7FA42F251
:1000A8001072054B1A60054B00221A6008BD00BF8C
:1000B80000030020B8030020140300200C030020D4
:1000C80008B50D4B188800F024FB0C4B014618604E
:1000D8000B4B1A689042C8BF18600A4B1A689042C6
:1000E800B8BF18600A22084800F008FABDE80840BE
:1000F8004FF47A7000F004B90003002010030020C8
:100108000C03002014030020B803002008B500F0F9
:1001180015F8014B186008BD1803002008B5024BFC
:100128001B689B6A019308BD9C01060808B5024B31
:100138001B685B6B019308BD9C01060808B5024B60
:100148001B681B68019308BDB001060808B5024B7F
:100158001B685B68019308BDB001060808B5024B2F
:100168001B689B68019308BDB001060808B5024BDF
:100178001B681B6B019308BDB001060808B5024B4C
:100188001B681B6E019308BDAC01060808B5024B3D
:100198001B685B6E019308BDAC01060808B5024BED
:1001A8001B689B6E019308BDAC01060808B5024B9D
:1001B8001B68DB6E019308BDAC01060808B5024B4D
:1001C8001B681B6F019308BDAC01060808B5024BFC
:1001D8001B685B6F019308BDAC01060808B5034BAB
:1001E8001B68D3F88030019308BD0000AC010608F5
:1001F80008B5024B1B68DB69019308BDB40106080A
:1002080008B5024B1B681B6A019308BDB4010608B8
:1002180008B5024B1B681B68019308BDC40106089A
:1002280008B5024B1B685B68019308BDC40106084A
:1002380008B5024B1B689B68019308BDC4010608FA
:1002480008B5024B1B68DB68019308BDC4010608AA
:1002580008B5024B1B689B69019308BDC4010608D9
:1002680008B5024B1B685B6A019308BDC401060808
:1002780008B5024B1B689B6A019308BDC4010608B8
:1002880008B5024B1B68DB6A019308BDC401060868
:1002980008B5024B1B681B6B019308BDC401060817
:1002A80008B5024B1B685B6B019308BDC4010608C7
:1002B80008B5024B1B689B6B019308BDC401060877
:1002C80008B5024B1B685B68019308BDA4010608CA
:1002D80008B5024B1B685B69019308BDA4010608B9
:1002E80008B5024B1B681B69019308BDC8010608C5
:1002F80008B5024B1B685B68019308BDA00106089E
:100308000021FFF7E5BF10B50446FFF707FFFFF729
:100318000DFF204610BD7047F8B5064615460C4639
:100328008F18BC4206D0336830469B6814F8011B0E
:100338009847F6E72846F8BD007C0022FFF71EBF65
:10034800007C0021FFF722BF007C0021FFF726BFB9
:10035800007C0021FFF72ABF007C0021FFF72EBF99
:1003680010B50446FFF78EFE204610BD10B50446B2
:100378004FF47A728260054A002343600260017478
:1003880008461946FFF72AFF204610BDF8090A0853
:10039800007C0021FFF71ABF704710B50446FFF72D
:1003A80071FE204610BDF8B50F4600F10806051D80
:1003B800002416F8011D38460A2200F0B6F8AE42AD
:1003C800044407D0002CF4D038462E2100F046F81B
:1003D8000444EEE72046F8BD10B59DF8084044EA0D
:1003E800032343EA024242EA0161042341600375A0
:1003F80010BD000037B50446044D05609DF818503F
:100408000095FFF7E9FF204603B030BD200A0A082F
:10041800F8B506460D468F180024BD420CD0336847
:1004280030469B6815F8011B9847002801DB0444F7
:10043800F3E7002C08BF04462046F8BD70B5054612
:100448000C46084649B100F0BAFA2B680246214624
:100458002846BDE87040DB68184770BD03689B6894
:10046800184738B50D210546FFF7F8FF0A2104465D
:100478002846FFF7F3FF204438BD012A98BF0A2217
:1004880030B50B468BB000218DF824100DF12304F4
:10049800B3FBF2F505FB1233DBB2092B94BF303303
:1004A8003733DBB2214604F801392B46002DEFD152
:1004B800FFF7C4FF0BB030BD2DE9F04107460E46EB
:1004C80015462AB9BDE8F0410368C9B29B681847C8
:1004D8000A2A02D1002901DA04E0D2B2BDE8F041CB
:1004E800FFF7CBBF2D21FFF7B9FF714204462A461B
:1004F8003846FFF7C2FF2044BDE8F08138B505460D
:10050800FFF7DAFF04462846FFF7ABFF204438BD63
:1005180010B52AB9BDE810400368C9B29B681847EE
:10052800D2B2BDE81040FFF7A8BFFFF7F1BF704790
:1005380010B50446FFF7A6FD204610BD10B50446C9
:10054800044B017103600846FFF752FE0023A360C5
:10055800204610BD380A0A080079FFF751BE00206E
:10056800FFF7AEBE024B1A68024B1A60704700BF15
:10057800040300201C0300207047007CFFF778BEAE
:10058800007CFFF785BE007CFFF77ABE007CFFF792
:1005980087BE007CFFF764BE10B50446FFF772FD06
:1005A800204610BD10B50446002060604FF47A70F4
:1005B800A060054821742060084611461A46FFF7D6
:1005C80047FE204610BD00BF780A0A08007CFFF7E6
:1005D8006FBE000010B5074C00212046064A074BA5
:1005E800FFF7E0FF2046BDE810400549054A00F046
:1005F800FBB800BF2003002076030020340300204E
:1006080081050A0808030020704770470020FFF79B
:100618000FBE0120FFF70CBE08B5FFF701FE08BDAD
:1006280008B50846FFF70CFE012008BD10B50446C2
:10063800FFF728FD204610BD002242604FF47A7271
:100648008260014A02607047A00A0A080846FFF75C
:10065800DFBD000010B5054C2046FFF7EDFF204632
:10066800BDE810400249034A00F0BEB8B8030020B4
:1006780013060A08080300207047002001460246B6
:10068800FFF72EBE0348044B0449054A036000F0F7
:10069800ABB800BFC8030020C80A0A0881060A08C8
:1006A8000803002010B504460E48FFF755FF28B18F
:1006B800A4F10D03022B01D8002010BD0A48FFF752
:1006C80067FE08B1012CF7D90848FFF77FFF30B162
:1006D800A4F11200012894BF0020012010BD0120C0
:1006E80010BD00BFFC030020D00300202003002021
:1006F800172838B505460C460AD8FF2908D0FFF751
:10070800D1FF28B128462146BDE83840FFF726BD6D
:1007180038BD10B5044609289CBF0A34A4B2204647
:10072800FFF7C0FF50B120460321FFF70FFD032854
:1007380004D12046BDE81040FFF718BD002010BDC9
:100748000148FFF7E0BD00BFCC03002010B5064C00
:1007580000212046FFF70AFE2046BDE81040034965
:10076800034A00F041B800BFD00300201F030A0865
:100778000803002013B5084C002100910A460B46D7
:100788002046FFF737FE20460449054A02B0BDE877
:10079800104000F029B800BFE4030020A1030A08B4
:1007A8000803002070B50C4E0C4D0D4C304600214E
:1007B800FFF7C4FE30460B4E2246294600F014F8D7
:1007C80030460121FFF7BAFE304629462246BDE8E9
:1007D800704000F009B800BFFC03002037050A0884
:1007E800080300200804002003460846194600F0C4
:1007F800C5B80000244B1A68D0075CBF01221A60F4
:10080800224B1A68D1075CBF01221A60204B1A6874
:10081800D2075CBF01221A601E4B1A68D0075CBF62
:1008280001221A601C4B1A68D1075CBF01221A60AA
:100838001A4B1A68D2075CBF01221A60184B1A6853
:10084800D0075CBF01221A60164B1A68D1075CBF3B
:1008580001221A60144B1A68D2075CBF01221A6081
:10086800124B1A68D0075CBF01221A60104B1A6835
:10087800D1075CBF01221A600E4B1A68D2075CBF11
:1008880001221A60704700BF400400203C04002089
:100898003804002034040020300400202C040020F8
:1008A8002804002024040020200400201C04002028
:1008B8001804002014040020244B1A68D0075CBFD9
:1008C80001221A60224B1A68D1075CBF01221A6004
:1008D800204B1A68D2075CBF01221A601E4B1A68A7
:1008E800D0075CBF01221A601C4B1A68D1075CBF95
:1008F80001221A601A4B1A68D2075CBF01221A60DB
:10090800184B1A68D0075CBF01221A60164B1A6888
:10091800D1075CBF01221A60144B1A68D2075CBF6A
:1009280001221A60124B1A68D0075CBF01221A60B4
:10093800104B1A68D1075CBF01221A600E4B1A6867
:10094800D2075CBF01221A60704700BF7004002004
:100958006C04002068040020640400206004002067
:100968005C04002058040020540400205004002097
:100978004C040020480400204404002038B50546F3
:1009880004480C46134620B1022029462246AFF3FC
:10099800008038BD0000000010B5431E0A44914293
:1009A80004D011F8014B03F8014FF8E710BD0346D6
:1009B8000244934202D003F8011BFAE7704703464A
:1009C80013F8012B002AFBD1181A013870470000D0
:1009D80045000A081D000A0885000A0889000A0857
:1009E80000000000000000000000000000000000FF
:1009F8001F030A0869030A0841030A0821030A08B1
:100A080049030A0851030A0859030A0861030A0836
:100A18000000000000000000AF030A08A1030A0854
:100A2800A3030A0800000000000000000000000006
:100A380037050A0839050A085A00252B3033643A65
:100A4800253032750025592D256D2D2564542548EE
:100A58003A254D3A2553257A0061736374696D65AB
:100A6800000000000000000000000000000000007E
:100A780081050A08A1050A089B050A0819040A083D
:100A880083050A088F050A0889050A0895050A08D2
:100A9800000000000000000013060A0835060A08D6
:100AA80029060A0819040A0821060A0815060A0868
:100AB8001B060A0811060A080000000000000000D2
:100AC80083060A0815010A0867050A086D050A0859
:100AD800DD050A085D060A088D060A0849070A089E
:100AE80055070A087D070A08AD070A08FD070A081E
:080AF800C1080A08000000001B
:080B00000E000000610A0A0862
:100B0800FFFFFFFF00000102030405060708090AAA
:100B18000B0C0D0E0F101112131415161718191AA5
:080B28001B1C1D1E1F202800EC
:040B300078563412AD
:04000005080A0018CD
:00000001FF
